{
  "contractName": "Chainbooks",
  "abi": [
    {
      "constant": false,
      "inputs": [
        {
          "name": "ipfs",
          "type": "string"
        },
        {
          "name": "author",
          "type": "address"
        }
      ],
      "name": "addBook",
      "outputs": [],
      "payable": false,
      "stateMutability": "nonpayable",
      "type": "function"
    },
    {
      "constant": true,
      "inputs": [
        {
          "name": "id",
          "type": "uint256"
        }
      ],
      "name": "getAuthor",
      "outputs": [
        {
          "name": "author",
          "type": "address"
        }
      ],
      "payable": false,
      "stateMutability": "view",
      "type": "function"
    },
    {
      "constant": true,
      "inputs": [
        {
          "name": "author",
          "type": "address"
        }
      ],
      "name": "getIpfs",
      "outputs": [
        {
          "name": "",
          "type": "string[]"
        }
      ],
      "payable": false,
      "stateMutability": "view",
      "type": "function"
    },
    {
      "constant": true,
      "inputs": [],
      "name": "getBookId",
      "outputs": [
        {
          "name": "",
          "type": "uint256"
        }
      ],
      "payable": false,
      "stateMutability": "view",
      "type": "function"
    }
  ],
  "bytecode": "0x60806040526000805534801561001457600080fd5b506107e1806100246000396000f3fe608060405234801561001057600080fd5b506004361061004c5760003560e01c80637310d33c146100515780639e2b84881461006f578063d22591c81461009f578063f25447bf146100bb575b600080fd5b6100596100eb565b6040516100669190610624565b60405180910390f35b610089600480360361008491908101906104de565b6100f4565b60405161009691906105e7565b60405180910390f35b6100b960048036036100b4919081019061048a565b610131565b005b6100d560048036036100d09190810190610461565b610213565b6040516100e29190610602565b60405180910390f35b60008054905090565b60006001600083815260200190815260200160002060009054906101000a900473ffffffffffffffffffffffffffffffffffffffff169050919050565b80600160008054815260200190815260200160002060006101000a81548173ffffffffffffffffffffffffffffffffffffffff021916908373ffffffffffffffffffffffffffffffffffffffff160217905550600260008273ffffffffffffffffffffffffffffffffffffffff1673ffffffffffffffffffffffffffffffffffffffff16815260200190815260200160002060000182908060018154018082558091505090600182039060005260206000200160009091929091909150908051906020019061020192919061033e565b50506001600054016000819055505050565b6060600260008373ffffffffffffffffffffffffffffffffffffffff1673ffffffffffffffffffffffffffffffffffffffff168152602001908152602001600020600001805480602002602001604051908101604052809291908181526020016000905b82821015610333578382906000526020600020018054600181600116156101000203166002900480601f01602080910402602001604051908101604052809291908181526020018280546001816001161561010002031660029004801561031f5780601f106102f45761010080835404028352916020019161031f565b820191906000526020600020905b81548152906001019060200180831161030257829003601f168201915b505050505081526020019060010190610277565b505050509050919050565b828054600181600116156101000203166002900490600052602060002090601f016020900481019282601f1061037f57805160ff19168380011785556103ad565b828001600101855582156103ad579182015b828111156103ac578251825591602001919060010190610391565b5b5090506103ba91906103be565b5090565b6103e091905b808211156103dc5760008160009055506001016103c4565b5090565b90565b6000813590506103f281610779565b92915050565b600082601f83011261040957600080fd5b813561041c6104178261066c565b61063f565b9150808252602083016020830185838301111561043857600080fd5b610443838284610726565b50505092915050565b60008135905061045b81610790565b92915050565b60006020828403121561047357600080fd5b6000610481848285016103e3565b91505092915050565b6000806040838503121561049d57600080fd5b600083013567ffffffffffffffff8111156104b757600080fd5b6104c3858286016103f8565b92505060206104d4858286016103e3565b9150509250929050565b6000602082840312156104f057600080fd5b60006104fe8482850161044c565b91505092915050565b6000610513838361059f565b905092915050565b610524816106ea565b82525050565b6000610535826106a5565b61053f81856106c8565b93508360208202850161055185610698565b8060005b8581101561058d578484038952815161056e8582610507565b9450610579836106bb565b925060208a01995050600181019050610555565b50829750879550505050505092915050565b60006105aa826106b0565b6105b481856106d9565b93506105c4818560208601610735565b6105cd81610768565b840191505092915050565b6105e18161071c565b82525050565b60006020820190506105fc600083018461051b565b92915050565b6000602082019050818103600083015261061c818461052a565b905092915050565b600060208201905061063960008301846105d8565b92915050565b6000604051905081810181811067ffffffffffffffff8211171561066257600080fd5b8060405250919050565b600067ffffffffffffffff82111561068357600080fd5b601f19601f8301169050602081019050919050565b6000602082019050919050565b600081519050919050565b600081519050919050565b6000602082019050919050565b600082825260208201905092915050565b600082825260208201905092915050565b60006106f5826106fc565b9050919050565b600073ffffffffffffffffffffffffffffffffffffffff82169050919050565b6000819050919050565b82818337600083830152505050565b60005b83811015610753578082015181840152602081019050610738565b83811115610762576000848401525b50505050565b6000601f19601f8301169050919050565b610782816106ea565b811461078d57600080fd5b50565b6107998161071c565b81146107a457600080fd5b5056fea265627a7a7230582029d29c87e24306a66dbdaeb12ba3cffdc93627166c16fa54989390a021cad4d76c6578706572696d656e74616cf50037",
  "source": "pragma solidity 0.5.8;\r\npragma experimental ABIEncoderV2;\r\n\r\ncontract Chainbooks {\r\n  \r\n  uint bookNumber = 0;\r\n  \r\n   struct Ipfs {\r\n    string[] allIpfs;\r\n  }\r\n\r\n  mapping(uint => address) bookId;\r\n  mapping(address => Ipfs) Owner;\r\n  \r\n\r\n  function addBook(string memory ipfs, address author) public {\r\n    bookId[bookNumber] = author;\r\n    Owner[author].allIpfs.push(ipfs);\r\n    bookNumber = bookNumber + 1;\r\n  }\r\n  \r\n    function getAuthor(uint id) public view returns (address author) {\r\n     return bookId[id];\r\n   }\r\n   \r\n   function getIpfs(address author) public view returns (string[] memory) {\r\n       return Owner[author].allIpfs;\r\n   }\r\n   \r\n   function getBookId() public view returns(uint){\r\n       return bookNumber;\r\n   }\r\n}\r\n",
  "sourcePath": "D:\\Node\\Codebase\\ChainBlocks\\contracts\\Chainbooks.sol",
  "compiler": {
    "name": "solc",
    "version": "0.5.8+commit.23d335f2.Emscripten.clang"
  },
  "schemaVersion": "3.2.0",
  "updatedAt": "2020-05-29T20:48:44.616Z",
  "networkType": "ethereum",
  "devdoc": {
    "methods": {}
  },
  "userdoc": {
    "methods": {}
  }
}